:100000000C9478000C9466060C9466060C946606B4
:100010000C9466060C9466060C9466060C946606B0
:100020000C9466060C9466060C9466060C946606A0
:100030000C9466060C9466060C9466060C94660690
:100040000C9466060C94DD050C9466060C9466060A
:100050000C9466060C9466060C9466060C94660670
:100060000C9466060C94660607634236B79BD8A7C5
:100070001A39685618AEBAAB558C1D3CB7CC5763CD
:10008000BD6DEDFD753EF6177231BF000000803F7B
:1000900008000000BE922449123EABAAAA2ABECD97
:1000A000CCCC4C3E00000080BEABAAAAAA3E000009
:1000B0000000BF000000803F000000000008417801
:1000C000D3BB4387D1133D190E3CC3BD4282AD2B38
:1000D0003E68EC8276BED98FE1A93E4C80EFFFBE30
:1000E00001C4FF7F3F00000000000100010180000B
:1000F00011241FBECFEFD8E0DEBFCDBFEAEEF0E0A7
:1001000040E017C0B591A59135912591059107FD66
:100110000CC095918591EF01F92FE82F05900D9274
:10012000A217B307D9F7FE0104C01D92A217B307A7
:10013000E1F7EF3EF40731F70E941A010C94A0009A
:04014000F894FFCF61
:1001440054656D70657261747572610077796E6F54
:0401540073692000AB
:100158000E943F0658F00E94380640F029F45F3F9D
:1001680029F00C944D0651110C9447060C94630623
:100178000E941D0568F39923B1F3552391F3951B4C
:10018800550BBB27AA2762177307840738F09F5FB0
:100198005F4F220F331F441FAA1FA9F335D00E2E1D
:1001A8003AF0E0E832D091505040E695001CCAF78A
:1001B8002BD0FE2F29D0660F771F881FBB1F26174D
:1001C80037074807AB07B0E809F0BB0B802DBF0124
:1001D800FF2793585F4F3AF09E3F510578F00C94F3
:1001E8004D060C9447065F3FE4F3983ED4F386959A
:1001F80077956795B795F7959F5FC9F7880F911D14
:100208009695879597F90895E1E0660F771F881FFF
:10021800BB1F621773078407BA0720F0621B730BB2
:0C022800840BBA0BEE1F88F7E0950895D8
:10023400CF93DF93CDB7DEB769970FB6F894DEBFDF
:100244000FBECDBF0E945E030E9480050E94070678
:10025400789424E431E040E08CE0F901DE01169664
:10026400742F0E94FA0520E531E040E088E0F901AE
:10027400DE015296742F0E94FA052A9881E00E94AA
:1002840011062A9A682F70E080E090E00E94E20351
:1002940020E030E040EA50E40E945F0620E030E0D5
:1002A40040E85BE30E945F0620E030E040E251E476
:1002B4000E945B066B017C010E94070620E030E08F
:1002C4004AE754E4C701B6010E945F0622E030E029
:1002D400AE014F5F5F4F0E948601CE0106960E94D9
:1002E400CE0561E080E00E941A06CE0142960E948B
:1002F400CE05CE0101960E94CE058FED0E945706D1
:0803040083E40E945706B9CF03
:10030C002F923F924F925F926F927F928F929F9219
:10031C00AF92BF92CF92DF92EF92FF920F931F9307
:10032C00CF93DF934B015C018A01E9010E943106F6
:10033C006B017C0140E050E0B801C6010E94A003B3
:10034C001C01209799F1F801E80FF91F8EE28083C8
:10035C00BE010D2E000C880B990B0E94E4039B012F
:10036C00AC0160E070E080E291E40E94BE022B01DF
:10037C003C01B601DD0C880B990B0E94E4039B0138
:10038C00AC01C501B4010E942A062FEF221A320AD1
:10039C00020D131DA30192010E945F060E943106FB
:1003AC00DC01CB01AE01B8010E94A003DF91CF911B
:1003BC001F910F91FF90EF90DF90CF90BF90AF9077
:1003CC009F908F907F906F905F904F903F902F9069
:0203DC00089582
:1003DE000E94380638F00E943F0620F0952311F057
:1003EE000C944D060C94630611240C9447060E943F
:1003FE001D0570F3959FC1F3950F50E0551F629F39
:10040E00F001729FBB27F00DB11D639FAA27F00D5F
:10041E00B11DAA1F649F6627B00DA11D661F829F86
:10042E002227B00DA11D621F739FB00DA11D621F6B
:10043E00839FA00D611D221F749F3327A00D611D88
:10044E00231F849F600D211D822F762F6A2F11246A
:10045E009F5750409AF0F1F088234AF0EE0FFF1F9D
:10046E00BB1F661F771F881F91505040A9F79E3FF4
:10047E00510580F00C944D060C9447065F3FE4F353
:10048E00983ED4F3869577956795B795F795E7954A
:10049E009F5FC1F7FE2B880F911D9695879597F953
:0204AE000895AF
:1004B0000E94380638F00E943F0620F039F49F3F32
:1004C00019F426F40C9463060EF4E095E7FB0C9403
:1004D0004D06E92F0E941D0558F3BA1762077307EE
:1004E0008407950720F079F4A6F50C9446060EF4DF
:1004F000E0950B2EBA2FA02D0B01B90190010C0134
:10050000CA01A0011124FF27591B99F0593F50F44B
:10051000503E68F11A16F040A22F232F342F4427A3
:10052000585FF3CF469537952795A795F04053959B
:10053000C9F77EF41F16BA0B620B730B840BBAF06B
:100540009150A1F0FF0FBB1F661F771F881FC2F7D6
:100550000EC0BA0F621F731F841F48F487957795EA
:100560006795B795F7959E3F08F0B0CF9395880FA4
:0C05700008F09927EE0F979587950895E5
:10057C00FA01EE0FFF1F309621053105A1F161152F
:10058C00710561F48038BFE39B0749F1689490389A
:10059C00810561F08038BFEF9B0741F099234AF544
:1005AC00FF3FE1053105210519F1E8940894E79521
:1005BC00D901AA2329F4AB2FBE2FF85FD0F310C0BA
:1005CC00FF5F70F4A695E0F7F73950F019F0FF3A99
:1005DC0038F49F779F930DD00F9007FC9058089597
:1005EC0046F00C94630660E070E080E89FE30895A9
:1005FC004FE79F775F934F933F932F930E94160380
:10060C002F913F914F915F910E945F060C942704AC
:10061C0016F00C94EC050C94630668940C944D063F
:10062C000E942505A8F39923C1F3AEF3DF93CF9372
:10063C001F930F93FF92C92FDD2788232AF0219750
:10064C00660F771F881FDAF720E030E040E85FEB99
:10065C009FE3883920F0803E38F021968F770E94F6
:10066C002B06E0E9F0E004C00E942B06EDEBF0E075
:10067C000E94F6048B01BE01EC01FB2E6F57710931
:10068C007595771F880B990B0E94E40328E132E7DC
:10069C0041E35FE30E94FE01AF2D9801AE01FF9094
:1006AC000F911F91CF91DF910E9469020C94BD05AF
:1006BC00CF933B9A3A9A399A389A3C9A509A2FE5AA
:1006CC008AEE90E0215080409040E1F700C000009D
:1006DC0058984498C3E0449A83E00E945605449885
:1006EC0087EA91E60197F1F700C00000C15099F735
:1006FC00449A82E00E945605449887E893E101975A
:10070C00F1F700C0000088E20E94530688E00E94C6
:10071C00530681E00E9453068FE097E20197F1F7B0
:10072C0000C0000086E00E9453068CE00E94530635
:04073C00CF910895BC
:10074000CF92DF92EF92FF920F931F93CF93DF939D
:100750006B018A01009799F0EB01E0E0F0E00F2EC9
:10076000FAE0EF2EF12CF02D3196B7010E9495059D
:10077000805D8993862F972F0097B1F702C0E0E044
:10078000F0E0E017F1075CF4EC0DFD1D9601200F81
:10079000311F80E38193E217F307E1F701C08F0176
:1007A000B801C6010E943F05E601C00FD11F1882A3
:1007B000C801DF91CF911F910F91FF90EF90DF90D3
:0407C000CF90089539
:1007C400E89409C097FB3EF49095809570956195E7
:1007D4007F4F8F4F9F4F9923A9F0F92F96E9BB279D
:1007E4009395F695879577956795B795F111F8CF19
:1007F400FAF4BB0F11F460FF1BC06F5F7F4F8F4F84
:100804009F4F16C0882311F096E911C0772321F079
:100814009EE8872F762F05C0662371F096E8862F11
:1008240070E060E02AF09A95660F771F881FDAF768
:0A083400880F9695879597F90895AF
:10083E0029F416F00C944D060C9446060C9463069F
:10084E000E942505A8F39638A0F707F80F92E894B2
:10085E002BE33AEA48EB5FE70E9401020F920F92F8
:10086E000F924DB75EB70F920E949304E8E6F0E048
:10087E000E94F6044F915F91EF91FF91E595EE1F67
:10088E00FF1F49F0FE57E0684427EE0F441FFA950C
:10089E00E1F74195550B0E945D040F9007FE0C94F5
:0408AE002206089581
:1008B2000C944D060C94EC050E942505D8F399235F
:1008C200C9F3940F511DA3F39150504094F059F085
:1008D200882332F0660F771F881F91505040C1F76E
:1008E2009E3F51052CF7880F911D9695879597F994
:1008F20008955F3FACF0983E9CF0BB2786957795B4
:100902006795B79508F4B1609395C1F7BB0F58F797
:1009120011F460FFE8CF6F5F7F4F8F4F9F4FE3CFA0
:040922000C944706E4
:10092600FA01DC01AA0FBB1F9B01AC01BF5728F4DB
:10093600222733274427507820C0B75190F4AB2F95
:100946000024469537952795011CA395D2F30020E0
:1009560071F0220F331F441FB395DAF30ED00C94B7
:100966002A0661307105A0E88A07B94630F49B0172
:10097600AC016627772788279078309621F0208368
:0809860031834283538308957D
:10098E000E94250588F09F5798F0B92F9927B751E7
:10099E00B0F0E1F0660F771F881F991F1AF0BA9515
:1009AE00C9F714C0B13091F00E944606B1E0089527
:1009BE000C944606672F782F8827B85F39F0B93F19
:1009CE00CCF3869577956795B395D9F73EF49095C8
:0E09DE008095709561957F4F8F4F9F4F0895C4
:1009EC00DF93CF931F930F93FF92EF92DF927B01D4
:1009FC008C01689406C0DA2EEF010E94FE01FE0104
:100A0C00E894A5912591359145915591A6F3EF0167
:100A1C000E946902FE019701A801DA9469F7DF9040
:0E0A2C00EF90FF900F911F91CF91DF910895F1
:100A3A0057FD9058440F551F59F05F3F71F0479585
:100A4A00880F97FB991F61F09F3F79F0879508956A
:100A5A00121613061406551FF2CF4695F1DF08C089
:100A6A00161617061806991FF1CF869571056105A6
:040A7A00089408953F
:100A7E009B01215031091216130684F4FC01E60F76
:100A8E00F71FDC0180E090E04C9152915D93408322
:0E0A9E0001962150310982179307B4F3089591
:100AAC0080FF02C0439A01C0439881FF02C0429A62
:100ABC0001C0429882FF02C0419A01C0419883FF55
:0A0ACC0002C0409A08954098089572
:100AD600CF93C82F449A82958F700E9456054498EA
:100AE600449A8C2F0E945605449889EF90E001970E
:0A0AF600F1F700C00000CF91089551
:100B00002D9A259A2498239A229A80E18CBD8CB53F
:100B100083608CBD8CB580648CBD8CB580688CBDC9
:0A0B20008DB58FEF8093000108955A
:100B2A0097FB072E16F4009407D077FD09D00E9490
:100B3A00A90507FC05D03EF4909581959F4F08952D
:080B4A00709561957F4F08953D
:100B5200AA1BBB1B51E107C0AA1FBB1FA617B707E1
:100B620010F0A61BB70B881F991F5A95A9F78095FD
:080B72009095BC01CD0108952E
:100B7A00092E0394000C11F4882352F0BB0F40F4A1
:100B8A00BF2B11F460FF04C06F5F7F4F8F4F9F4FE1
:020B9A000895BC
:100B9C00CF93DF93EC018881882331F021960E945A
:0E0BAC00570689918111FBCFDF91CF910895FB
:100BBA001F920F920FB60F9211248F938FEF80938B
:0E0BCA0000018F910F900FBE0F901F90189595
:100BD8009F3F31F0915020F4879577956795B795A9
:0C0BE800880F911D9695879597F9089548
:100BF400992777FD05C005900D920197E1F70895B7
:0A0C040001900D920197E1F70895A9
:100C0E0082E00E9453068FE097E20197F1F700C051
:040C1E000000089535
:100C2200109200018EBD809100018823E1F38EB500
:020C3200089523
:100C340090E4699F800D112480680E9453060895F2
:100C44009B01AC0160E070E080E89FE30C945B06DC
:0E0C54005058BB27AA270E9469020C94BD05C8
:0E0C62000E94C7046894B1110C9447060895CF
:0E0C700000240A9416161706180609060895A1
:0E0C7E0000240A9412161306140605060895A3
:0E0C8C00E894BB2766277727CB0197F90895D8
:0C0C9A0097F99F6780E870E060E0089523
:080CA60058980E946B050895A7
:080CAE00589A0E946B0508959D
:080CB6000E94BC000C94BD0576
:080CBE000E94FE010C94BD052B
:060CC6009FEF80EC089591
:040CCC000C94000084
:00000001FF
