:100000000C9439000C94B8000C94B8000C94B8000F
:100010000C94B8000C94B8000C94B8000C94B80080
:100020000C94B8000C94B8000C94B8000C94B80070
:100030000C94B8000C94B8000C94B8000C94B80060
:100040000C94B8000C947D000C94B8000C94B8008B
:100050000C94B8000C9463000C94B8000C94B80095
:100060000C94B8000C94B80001000101800101015A
:10007000028011241FBECFEFD8E0DEBFCDBFE8E67F
:10008000F0E040E017C0B591A5913591259105911B
:1000900007FD0CC095918591EF01F92FE82F059090
:1000A0000D92A217B307D9F7FE0104C01D92A21743
:1000B000B307E1F7E237F40731F70E94A3000C948D
:0600C0006100F894FFCF7F
:1000C6001F920F920FB60F9211248F93CF93DF9347
:1000D6001F92CDB7DEB7809179008983898180939D
:1000E60000010F90DF91CF918F910F900FBE0F906F
:0400F6001F901895AA
:1000FA001F920F920FB60F9211248F938FEF809356
:0E010A0001018F910F900FBE0F901F9018955E
:10011800249A8CB580648CBD8CB580688CBD8DB5F7
:080128008FEF8093010108959F
:1001300085E680937C00EAE7F0E088EA80838081AE
:0601400080648083089535
:100146000E948C000E94980078940E94B5000E943C
:04015600AD00FBCF2E
:10015A00909101019923E1F3109201018EBD089556
:06016A00809100010895E0
:040170000C940000EB
:00000001FF
